{
  "_format": "hh-sol-artifact-1",
  "contractName": "TetraCoinGame",
  "sourceName": "contracts/TetraCoinGame.sol",
  "abi": [
    {
      "inputs": [
        {
          "internalType": "address",
          "name": "_tetraCoinAddress",
          "type": "address"
        }
      ],
      "stateMutability": "nonpayable",
      "type": "constructor"
    },
    {
      "anonymous": false,
      "inputs": [
        {
          "indexed": true,
          "internalType": "address",
          "name": "player",
          "type": "address"
        },
        {
          "indexed": false,
          "internalType": "uint256",
          "name": "score",
          "type": "uint256"
        }
      ],
      "name": "ScoreSubmitted",
      "type": "event"
    },
    {
      "anonymous": false,
      "inputs": [
        {
          "indexed": true,
          "internalType": "address",
          "name": "winner",
          "type": "address"
        },
        {
          "indexed": false,
          "internalType": "uint256",
          "name": "rewardAmount",
          "type": "uint256"
        }
      ],
      "name": "WinnerAwarded",
      "type": "event"
    },
    {
      "inputs": [
        {
          "internalType": "uint256",
          "name": "rewardAmount",
          "type": "uint256"
        }
      ],
      "name": "awardWinner",
      "outputs": [],
      "stateMutability": "nonpayable",
      "type": "function"
    },
    {
      "inputs": [
        {
          "internalType": "address",
          "name": "player",
          "type": "address"
        }
      ],
      "name": "getScore",
      "outputs": [
        {
          "internalType": "uint256",
          "name": "",
          "type": "uint256"
        }
      ],
      "stateMutability": "view",
      "type": "function"
    },
    {
      "inputs": [],
      "name": "highestScore",
      "outputs": [
        {
          "internalType": "uint256",
          "name": "",
          "type": "uint256"
        }
      ],
      "stateMutability": "view",
      "type": "function"
    },
    {
      "inputs": [],
      "name": "highestScorer",
      "outputs": [
        {
          "internalType": "address",
          "name": "",
          "type": "address"
        }
      ],
      "stateMutability": "view",
      "type": "function"
    },
    {
      "inputs": [],
      "name": "owner",
      "outputs": [
        {
          "internalType": "address",
          "name": "",
          "type": "address"
        }
      ],
      "stateMutability": "view",
      "type": "function"
    },
    {
      "inputs": [
        {
          "internalType": "address",
          "name": "",
          "type": "address"
        }
      ],
      "name": "scores",
      "outputs": [
        {
          "internalType": "uint256",
          "name": "",
          "type": "uint256"
        }
      ],
      "stateMutability": "view",
      "type": "function"
    },
    {
      "inputs": [
        {
          "internalType": "uint256",
          "name": "_score",
          "type": "uint256"
        }
      ],
      "name": "submitScore",
      "outputs": [],
      "stateMutability": "nonpayable",
      "type": "function"
    },
    {
      "inputs": [],
      "name": "tetraCoin",
      "outputs": [
        {
          "internalType": "contract IERC20",
          "name": "",
          "type": "address"
        }
      ],
      "stateMutability": "view",
      "type": "function"
    }
  ],
  "bytecode": "0x608060405234801561001057600080fd5b50604051610cfc380380610cfc8339818101604052810190610032919061011c565b336000806101000a81548173ffffffffffffffffffffffffffffffffffffffff021916908373ffffffffffffffffffffffffffffffffffffffff16021790555080600160006101000a81548173ffffffffffffffffffffffffffffffffffffffff021916908373ffffffffffffffffffffffffffffffffffffffff16021790555050610149565b600080fd5b600073ffffffffffffffffffffffffffffffffffffffff82169050919050565b60006100e9826100be565b9050919050565b6100f9816100de565b811461010457600080fd5b50565b600081519050610116816100f0565b92915050565b600060208284031215610132576101316100b9565b5b600061014084828501610107565b91505092915050565b610ba4806101586000396000f3fe608060405234801561001057600080fd5b50600436106100885760003560e01c8063aff0b2971161005b578063aff0b29714610115578063d47875d014610131578063d896992114610161578063ea1738651461017f57610088565b80631bd6390c1461008d57806376dd110f146100ab5780638da5cb5b146100db57806398feb030146100f9575b600080fd5b61009561019d565b6040516100a2919061079b565b60405180910390f35b6100c560048036038101906100c091906107f9565b6101c3565b6040516100d2919061083f565b60405180910390f35b6100e36101db565b6040516100f09190610869565b60405180910390f35b610113600480360381019061010e91906108b0565b6101ff565b005b61012f600480360381019061012a91906108b0565b61057c565b005b61014b600480360381019061014691906107f9565b6106a7565b604051610158919061083f565b60405180910390f35b6101696106f0565b6040516101769190610869565b60405180910390f35b610187610716565b604051610194919061083f565b60405180910390f35b600160009054906101000a900473ffffffffffffffffffffffffffffffffffffffff1681565b60046020528060005260406000206000915090505481565b60008054906101000a900473ffffffffffffffffffffffffffffffffffffffff1681565b60008054906101000a900473ffffffffffffffffffffffffffffffffffffffff1673ffffffffffffffffffffffffffffffffffffffff163373ffffffffffffffffffffffffffffffffffffffff161461028d576040517f08c379a00000000000000000000000000000000000000000000000000000000081526004016102849061093a565b60405180910390fd5b600073ffffffffffffffffffffffffffffffffffffffff16600260009054906101000a900473ffffffffffffffffffffffffffffffffffffffff1673ffffffffffffffffffffffffffffffffffffffff160361031e576040517f08c379a0000000000000000000000000000000000000000000000000000000008152600401610315906109a6565b60405180910390fd5b80600160009054906101000a900473ffffffffffffffffffffffffffffffffffffffff1673ffffffffffffffffffffffffffffffffffffffff166370a08231306040518263ffffffff1660e01b815260040161037a9190610869565b602060405180830381865afa158015610397573d6000803e3d6000fd5b505050506040513d601f19601f820116820180604052508101906103bb91906109db565b10156103fc576040517f08c379a00000000000000000000000000000000000000000000000000000000081526004016103f390610a54565b60405180910390fd5b600160009054906101000a900473ffffffffffffffffffffffffffffffffffffffff1673ffffffffffffffffffffffffffffffffffffffff1663a9059cbb600260009054906101000a900473ffffffffffffffffffffffffffffffffffffffff16836040518363ffffffff1660e01b815260040161047b929190610a74565b6020604051808303816000875af115801561049a573d6000803e3d6000fd5b505050506040513d601f19601f820116820180604052508101906104be9190610ad5565b50600260009054906101000a900473ffffffffffffffffffffffffffffffffffffffff1673ffffffffffffffffffffffffffffffffffffffff167fd1b693e213ce4bf8034bcd0bf93c8892052c4334939c8354078feb05a6ab71e782604051610527919061083f565b60405180910390a26000600260006101000a81548173ffffffffffffffffffffffffffffffffffffffff021916908373ffffffffffffffffffffffffffffffffffffffff160217905550600060038190555050565b600081116105bf576040517f08c379a00000000000000000000000000000000000000000000000000000000081526004016105b690610b4e565b60405180910390fd5b80600460003373ffffffffffffffffffffffffffffffffffffffff1673ffffffffffffffffffffffffffffffffffffffff16815260200190815260200160002081905550600354811115610656578060038190555033600260006101000a81548173ffffffffffffffffffffffffffffffffffffffff021916908373ffffffffffffffffffffffffffffffffffffffff1602179055505b3373ffffffffffffffffffffffffffffffffffffffff167fa578df9b0453d14d7ed8615ee0e9d58f70e041e91fc5865e3b71f81ea05296c08260405161069c919061083f565b60405180910390a250565b6000600460008373ffffffffffffffffffffffffffffffffffffffff1673ffffffffffffffffffffffffffffffffffffffff168152602001908152602001600020549050919050565b600260009054906101000a900473ffffffffffffffffffffffffffffffffffffffff1681565b60035481565b600073ffffffffffffffffffffffffffffffffffffffff82169050919050565b6000819050919050565b600061076161075c6107578461071c565b61073c565b61071c565b9050919050565b600061077382610746565b9050919050565b600061078582610768565b9050919050565b6107958161077a565b82525050565b60006020820190506107b0600083018461078c565b92915050565b600080fd5b60006107c68261071c565b9050919050565b6107d6816107bb565b81146107e157600080fd5b50565b6000813590506107f3816107cd565b92915050565b60006020828403121561080f5761080e6107b6565b5b600061081d848285016107e4565b91505092915050565b6000819050919050565b61083981610826565b82525050565b60006020820190506108546000830184610830565b92915050565b610863816107bb565b82525050565b600060208201905061087e600083018461085a565b92915050565b61088d81610826565b811461089857600080fd5b50565b6000813590506108aa81610884565b92915050565b6000602082840312156108c6576108c56107b6565b5b60006108d48482850161089b565b91505092915050565b600082825260208201905092915050565b7f4f6e6c79206f776e65722063616e206177617264207468652077696e6e657200600082015250565b6000610924601f836108dd565b915061092f826108ee565b602082019050919050565b6000602082019050818103600083015261095381610917565b9050919050565b7f4e6f2073636f726573207375626d697474656400000000000000000000000000600082015250565b60006109906013836108dd565b915061099b8261095a565b602082019050919050565b600060208201905081810360008301526109bf81610983565b9050919050565b6000815190506109d581610884565b92915050565b6000602082840312156109f1576109f06107b6565b5b60006109ff848285016109c6565b91505092915050565b7f496e73756666696369656e74205465747261436f696e2062616c616e63650000600082015250565b6000610a3e601e836108dd565b9150610a4982610a08565b602082019050919050565b60006020820190508181036000830152610a6d81610a31565b9050919050565b6000604082019050610a89600083018561085a565b610a966020830184610830565b9392505050565b60008115159050919050565b610ab281610a9d565b8114610abd57600080fd5b50565b600081519050610acf81610aa9565b92915050565b600060208284031215610aeb57610aea6107b6565b5b6000610af984828501610ac0565b91505092915050565b7f53636f7265206d75737420626520706f73697469766500000000000000000000600082015250565b6000610b386016836108dd565b9150610b4382610b02565b602082019050919050565b60006020820190508181036000830152610b6781610b2b565b905091905056fea26469706673582212201d359cc987e8088e48a0d5e2d77c2971e556a5993c1b1f9983bf072dd5c15de264736f6c634300081c0033",
  "linkReferences": {},
  "deployedLinkReferences": {}
}